:100000000C942A000C9447000C9447000C94470071
:100010000C9447000C9447000C9447000C94B806CD
:100020000C9447000C9447000C9447000C94470034
:100030000C9447000C9447000C9447000C94470024
:100040000C9447000C9447000C9447000C94470014
:100050000C94470011241FBECFE5D8E0DEBFCDBF12
:1000600010E0A0E6B0E0E8ECF1E202C005900D92ED
:10007000AC37B107D9F711E0ACE7B0E001C01D9291
:10008000AF31B107E1F70E94B1020C94E2100C9479
:100090000000823061F0833018F4813069F405C0CB
:1000A000833039F0843041F406C06ABB089567BBE1
:1000B000089564BB089561BB0895823061F0833078
:1000C00018F4813059F405C0833029F0843031F4BC
:1000D00004C06BBB089568BB089562BB089582306D
:1000E00061F0833018F4813069F405C0833039F051
:1000F000843041F406C089B3089586B3089583B36C
:10010000089580B30895823041F1833020F4813026
:1001100009F058C006C0833001F1843009F052C0A4
:1001200037C0413059F42BB381E090E002C0880F12
:10013000991F6A95E2F7282B2BBB0895442309F0F9
:1001400041C02BB381E090E002C0880F991F6A95EF
:10015000E2F7809582238BBB0895413059F428B390
:1001600081E090E002C0880F991F6A95E2F7282B82
:1001700028BB0895442331F528B381E090E002C004
:10018000880F991F6A95E2F78095822388BB0895AE
:10019000413059F422B381E090E002C0880F991FEA
:1001A0006A95E2F7282B22BB0895442359F422B321
:1001B00081E090E002C0880F991F6A95E2F7809570
:1001C000822382BB0895823049F1833020F481304C
:1001D00009F075C007C0833009F43CC0843009F0D1
:1001E0006EC053C0413059F42AB381E090E002C0A0
:1001F000880F991F6A95E2F7282B2ABB089544239C
:1002000009F05DC02AB381E090E002C0880F991F19
:100210006A95E2F7809582238ABB0895413059F4AC
:1002200027B381E090E002C0880F991F6A95E2F73A
:10023000282B27BB0895442309F041C027B381E050
:1002400090E002C0880F991F6A95E2F7809582239B
:1002500087BB0895413059F424B381E090E002C097
:10026000880F991F6A95E2F7282B24BB0895442331
:1002700031F524B381E090E002C0880F991F6A95A0
:10028000E2F78095822384BB0895413059F421B36D
:1002900081E090E002C0880F991F6A95E2F7282B51
:1002A00021BB0895442359F421B381E090E002C0BA
:1002B000880F991F6A95E2F78095822381BB089584
:1002C000823061F0833018F48130D9F405C0833076
:1002D00039F08430B1F40DC089B303C086B301C0D6
:1002E00083B390E002C0959587956A95E2F7817097
:1002F000089580B390E002C0959587956A95E2F7DE
:10030000817008950F931F93182F82E061E040E001
:100310000E94830082E060E040E00E94830081E070
:10032000612F0E945D0082E062E041E00E94830054
:1003300000ED17E0C8010197F1F782E062E040E0CC
:100340000E948300C8010197F1F71F910F91089552
:10035000882329F4862F80580E94820108958130D5
:1003600021F4862F80540E948201089582E060E08B
:1003700041E00E94E30082E061E041E00E94E3008E
:1003800082E062E041E00E94E30081E06FEF0E94C2
:10039000490084EF91E028EC30E0F9013197F1F762
:1003A0000197D9F788E30E94820180ED97E00197D9
:1003B000F1F78CE00E94820180EA9FE00197F1F75B
:1003C00081E00E94820108950F931F93182F82E00D
:1003D00061E040E00E94830082E060E041E00E9432
:1003E000830081E0612F0E945D0082E062E041E0D5
:1003F0000E94830000ED17E0C8010197F1F782E049
:1004000062E040E00E948300C8010197F1F71F916C
:100410000F910895AF92BF92CF92DF92EF92FF9229
:100420000F931F935B016C016115710581059105A7
:1004300019F480E30E94E40181E0E82EF12C012D03
:10044000112D1EC0C801B7012AE030E040E050E0A5
:100450000E947D0F7B018C01C601B5010E949C0F9B
:10046000E60EF71E081F191FC601B5012AE030E08D
:1004700040E050E00E949C0FC901DA015C016D016F
:10048000A114B104C104D104E9F618C0C801B70130
:100490002AE030E040E050E00E949C0F862F805D13
:1004A0000E94E401C801B7012AE030E040E050E0DA
:1004B0000E949C0FC901DA017C018D0181E0E816E0
:1004C000F1040105110511F71F910F91FF90EF90B5
:1004D000DF90CF90BF90AF9008951F93CF93DF939D
:1004E000EC0110E003C00E94E4011F5FFE01E10F78
:1004F000F11D80818823B9F7DF91CF911F91089575
:100500008091190190911A0164E670E00E94A2089E
:10051000813039F460E00E94A80180E690E00E94FA
:100520006D028091190190911A010E94E709E8CFAC
:100530008091190190911A0164E670E00E94A2086E
:10054000813041F480E060E00E94A80188E690E0FC
:100550000E946D028091190190911A010E94E70991
:10056000E7CFAF92BF92CF92DF92EF92FF920F93BD
:100570000E94B60188E992E060E070E042EC51E050
:1005800020E030E003E0EE24FF24CC24DD24AA2484
:10059000BB240E94520E80E892E060E070E042ECE2
:1005A00051E020E030E00E94520E0E940A0A90932F
:1005B0001A01809319010E94520F80E090E00F9180
:1005C000FF90EF90DF90CF90BF90AF900895EF92A3
:1005D000FF920F931F93FC010580F681E02DE680CA
:1005E000F7808701045F1F4FC8010E94B7058DEA9D
:1005F00090E0B8010E94590520E0E0917C00F09164
:100600007D00D70156969C918689981708F021E0C5
:10061000822F1F910F91FF90EF900895FF920F93FB
:100620001F93CF93DF9399E0F92E21C0F894E091C6
:10063000B200F091B30006811781C8010C960E94A8
:10064000B7057894E8012296CE010E94B705F8011B
:10065000968980917E00891710F490937E009F9D6B
:10066000C00111248B579F4FBE010E9459058091F4
:10067000AD008823D9F60E949B0A20917F0030911B
:100680008000821B930B909382008093810089E00D
:10069000F82E53C0019690938400809383002150DC
:1006A00030403093820020938100892B09F03EC0B6
:1006B0002091A9003091AA008091AB009091AC00EC
:1006C0009093AA008093A9003093AC002093AB00D4
:1006D0002DC00580F681E02DC681D7812091830051
:1006E000309184008A819B812817390730F1F89472
:1006F0008E010E5F1F4FC8010E94B7058C899D892E
:10070000892B21F0CE010C960E94B70578949E8922
:1007100080917E00891710F490937E009F9DC00108
:1007200011248B579F4FB8010E945905E091A900F1
:10073000F091AA008081882361F620918100309198
:10074000820080918300909184002115310509F089
:10075000A1CF9093800080937F0090917E0029E04C
:1007600006C0992319F410927E0032C09150929FD6
:10077000D0011124AB57BF4F8C91882391F39093F4
:100780007E001196ED91FC9112970280F381E02D8D
:100790001296FC93EE931197CD010396E817F90793
:1007A00031F48281938112969C938E9311971196C6
:1007B000ED91FC9112970680F781E02DF0937D007A
:1007C000E0937C0020813181CF016789F90109958F
:1007D000DF91CF911F910F91FF9008950F931F9379
:1007E000CF93DF93EB010091830010918400080FF9
:1007F000191F80917C0090917D0002960E94B705A0
:10080000E0917C00F0917D0013830283809183004E
:1008100090918400BF016E5F7F4F0817190728F47D
:100820008091AB009091AC0004C08091A9009091A0
:10083000AA000E948205209749F060917C00709187
:100840007D00645F7F4FCE010E948205DF91CF91D2
:100850001F910F910895AF92BF92CF92DF92EF92C6
:10086000FF920F931F93CF93DF936C01B62EA42EAC
:100870008AE190E00E94B404EC01009711F48FEF3C
:1008800059C080917C0090917D00892B21F5D093F7
:100890007D00C0937C0085E890E00E9445058EE8CD
:1008A00090E00E94450527E9E22E20E0F22EC701E4
:1008B0000E94450500EA10E0C8010E9445058DEA46
:1008C00090E00E944505F092AA00E092A9001093E2
:1008D000AC000093AB00EB2CBB2011F0EE24E394B2
:1008E000198E188EEE8AAF8AFE01C192D1928F01C5
:1008F000CF010E945505CE010C960E945505D9875F
:10090000C887DB8BCA8B85E090E08E1991099D87A3
:100910008C879E8980917E00891710F490937E00C9
:1009200089E0989FC00111248B579F4FB8010E9406
:10093000590581E0DF91CF911F910F91FF90EF90CA
:10094000DF90CF90BF90AF900895CF93DF93EC01ED
:10095000009739F00E94950ACE010E946B100E9408
:10096000EE0CDF91CF9108950F931F938C010E949D
:10097000950AC8010E94BE0F182F092F0E94EE0C85
:10098000812F902F1F910F910895C29880ED97E0CD
:100990000197F1F7C29A80EE9EE20197F1F7089570
:1009A0001F93182FC098C19888B38F7088BB98B3D5
:1009B000812F807F892B88BB0E94C50488B38F70EC
:1009C00088BB88B31295107F812B88BB0E94C50419
:1009D0001F9108958FEF87BB84E088BB83E30E945B
:1009E000D00482E30E94D00488E20E94D0048CE00C
:1009F0000E94D00408951F93182FC09AC19888B3FD
:100A00008F7088BB98B3812F807F892B88BB0E9411
:100A1000C50488B38F7088BB88B31295107F812B73
:100A200088BB0E94C5041F910895813041F0813038
:100A300048F0823039F0833029F080E805C0862FF5
:100A4000805402C0862F80580E94D004089581E00F
:100A50000E94D0040895CF93DF93EC0103C00E945D
:100A6000FB04219688818823D1F7DF91CF910895E7
:100A70000F931F938C01862F642F0E941505C801C8
:100A80000E942B051F910F910895FC019C012D5F81
:100A90003F4F328321838FEF9FEF9483838336838D
:100AA00025833087278310820895FC0111861086E4
:100AB0000895CF93DF93AC01DB01EC0129813A81EA
:100AC000F9018281938113969C938E931297898169
:100AD0009A8115969C938E9314970280F381E02D52
:100AE00075836483E9017B836A83FA01728361837E
:100AF00019965C934E93189780818F5F8083DF9166
:100B0000CF910895CF93DF939C01EB0148815981E8
:100B10008FEF4F3F580721F4F901A781B08510C02E
:100B2000D901139604C012960D90BC91A02D129677
:100B3000ED91FC911397808191814817590798F79F
:100B40001296ED91FC911397FB83EA83D583C483BE
:100B5000BD83AC831396DC93CE9312973987288795
:100B6000F90180818F5F8083DF91CF910895CF93CA
:100B7000DF93DC011296ED91FC91139714968D9101
:100B80009C911597958384831496CD91DC9115974C
:100B9000FB83EA831896ED91FC91199781819281EC
:100BA0008A179B0711F4D283C18319961C921E9257
:100BB0001897808181508083DF91CF910895FC0147
:100BC00091E1908322E2229383E382936293729372
:100BD000129280E88293129282E0829383E0829361
:100BE00084E0829385E0829386E0829387E082931B
:100BF00088E0829389E0829380E18293929382E1FC
:100C0000829383E1829384E1829385E1829386E1FA
:100C1000829387E1829388E1829389E1829380E2E3
:100C2000829381E28293229383E28293429352934E
:100C300086E2829387E2829388E2829389E28293BA
:100C400080E3829381E382933197CF0108951BBCA7
:100C50008CE78ABD8BE08EBD89B7806189BFA0918A
:100C6000B600B091B700CD91CDBFDD91DEBFFF9151
:100C7000EF91DF91CF91BF91AF919F918F917F9134
:100C80006F915F914F913F912F911F910F91FF9025
:100C9000EF90DF90CF90BF90AF909F908F907F901C
:100CA0006F905F904F903F902F901F900F900FBECE
:100CB0000F90089581E0089508950F920FB6F8946B
:100CC0000F921F9211242F923F924F925F926F9238
:100CD0007F928F929F92AF92BF92CF92DF92EF92CC
:100CE000FF920F931F932F933F934F935F936F93B5
:100CF0007F938F939F93AF93BF93CF93DF93EF93A4
:100D0000FF93A091B600B091B7000DB60D920EB64C
:100D10000D920E94F60B0E94AF0AA091B600B0910E
:100D2000B700CD91CDBFDD91DEBFFF91EF91DF9197
:100D3000CF91BF91AF919F918F917F916F915F9173
:100D40004F913F912F911F910F91FF90EF90DF9066
:100D5000CF90BF90AF909F908F907F906F905F905B
:100D60004F903F902F901F900F900FBE0F900895BF
:100D70000E945D0618950F920FB6F8940F921F927D
:100D800011242F923F924F925F926F927F928F9297
:100D90009F92AF92BF92CF92DF92EF92FF920F930A
:100DA0001F932F933F934F935F936F937F938F93F3
:100DB0009F93AF93BF93CF93DF93EF93FF93A09154
:100DC000B600B091B7000DB60D920EB60D920E940E
:100DD000AF0AA091B600B091B700CD91CDBFDD9123
:100DE000DEBFFF91EF91DF91CF91BF91AF919F91C6
:100DF0008F917F916F915F914F913F912F911F91B3
:100E00000F91FF90EF90DF90CF90BF90AF909F90A9
:100E10008F907F906F905F904F903F902F901F909A
:100E20000F900FBE0F900895FC010FB6F8940F922B
:100E3000828D0F900FBE0895FC01828D0895FC01F4
:100E4000828D90E0882309F491E0892F0895FC01B8
:100E5000928D20E0838D981709F421E0822F089568
:100E60000F931F938C01FC01808191810E94A50446
:100E7000C8010E94A5041F910F9108950F931F931D
:100E8000CF93DF93EC01FB018A018A8D882381F1E6
:100E90004881598141155105A9F08C8D2E813F81E2
:100EA000280F311D3F832E838A819B8128173907A4
:100EB00010F05F834E834C8D6E817F81CF0150E0B7
:100EC0000E94C3108A8D81508A8F8D8D8F3F69F467
:100ED0008885882361F0CE0108960E94B70B88238D
:100EE00031F081E0F801808303C08F5F8D8F81E056
:100EF000DF91CF911F910F9108950F931F93CF937F
:100F0000DF93EC010FB6F8940F928C010F5E1F4F28
:100F10000DC08989882369F0C8010E94B70B882316
:100F200011F00E94360B8E8D81508E8F8E8D18168B
:100F300084F38FEF8E8F0F900FBE0FB6F8940F9241
:100F40008E01085F1F4F0DC08885882369F0C80196
:100F50000E94B70B882311F00E94360B8D8D8150B3
:100F60008D8F8D8D181684F38FEF8D8F0F900FBEA0
:100F7000DF91CF911F910F9108957F928F929F9251
:100F8000AF92BF92CF92DF92EF92FF920F931F9397
:100F9000DF93CF9300D000D00F92CDB7DEB78C0196
:100FA000962E872E5D834C83722E91E1C92ED12C13
:100FB000C00ED11E20E07E010894E11CF11C84E0EB
:100FC000A82EB12CAC0EBD1E01C021E00FB6F894C6
:100FD0000F92F801828D882309F448C0E680F780DB
:100FE0004081518141155105B1F0848D9701280F41
:100FF000311D37832683828193812817390710F0AA
:1010000057834683F801448D66817781892D982D19
:1010100050E00E94C3107720C1F4F801828D815006
:10102000828F80819181892B29F40E943A0BF801EB
:1010300093838283F80180858823A1F0C8010896F4
:101040000E94B70B813071F40BC0F801F782E68281
:101050008189882339F0C6010E94B70B882311F0DB
:101060000E94BB060F900FBE81E059C08C819D810C
:10107000892B19F40F900FBE51C0222319F4C70118
:101080000E94F10A0F900FBE0E94950A0FB6F894C5
:101090000F92F801858D8F3F09F4158EF801868D2A
:1010A0008F3F09F4168E0F900FBEC701B5010E9445
:1010B000FC0A882371F50FB6F8940F92F801828D1F
:1010C0000F900FBE8823F9F4F80180819181892B5C
:1010D00051F40FB6F8940F92F801828193810E9427
:1010E0006D0B0F900FBE6C817D81C6010E94D10CEB
:1010F000C8010E947D070E94EE0C882309F065CF8D
:101100000E94BB0662CFC8010E947D070E94EE0CC0
:101110005CCFC8010E947D070E94EE0C80E00F901A
:101120000F900F900F900F90CF91DF911F910F9123
:10113000FF90EF90DF90CF90BF90AF909F908F90F7
:101140007F900895EF92FF920F931F93CF93DF93B9
:10115000EC017B010A811B810E943A0B08171907D9
:1011600039F48E819F8101969F838E8321E00FC089
:10117000CE0160E070E0A70120E00E94BD07282FAB
:10118000813029F48E819F8101969F838E83822FE7
:10119000DF91CF911F910F91FF90EF900895CF9322
:1011A000DF93EC01842F4C8D442359F4888199817D
:1011B000892BD9F58A819B810E94400B1B821A8260
:1011C00034C08823B1F48C819D8150E00E94C3100B
:1011D0008C8D2C813D81280F311D3D832C838A818C
:1011E0009B812817390708F1888199819D838C8319
:1011F0001CC08E819F8150E00E94C3108C8D90E0B6
:1012000044275527481B590B8E819F81840F951FBA
:101210009F838E83288139818217930730F48A81D6
:101220009B81840F951F9F838E838A8D8F5F8A8F0A
:10123000DF91CF9108950F931F93CF93DF93EC012C
:101240008A019A8D8B8D981710F080E017C0CE011F
:10125000422F0E94CF088E8D8F3F69F489898823A1
:1012600061F0CE0141960E94B70B882331F081E0F6
:10127000F801808303C08F5F8E8F81E0DF91CF9173
:101280001F910F9108957F928F929F92AF92BF927C
:10129000CF92DF92EF92FF920F931F93DF93CF9342
:1012A00000D000D00F92CDB7DEB78C016B015D830B
:1012B0004C83722E48E0E42EF12CE80EF91E20E05B
:1012C0005E010894A11CB11C34E0832E912C8C0E7D
:1012D0009D1E01C021E00FB6F8940F92F801928D87
:1012E000838D9817A8F4C801B601472D0E94CF0836
:1012F000F8018189882341F0C80141960E94B70B0B
:10130000813011F40E94BB060F900FBE81E04CC0EB
:101310008C819D81892B19F40F900FBE44C022232C
:1013200019F4C5010E94F10A0F900FBE0E94950AA0
:101330000FB6F8940F92F801858D8F3F09F4158E42
:10134000F801868D8F3F09F4168E0F900FBEC501F0
:10135000B4010E94FC0A882309F50FB6F8940F9295
:10136000F801928D0F900FBEF801838D981781F4CC
:101370006C817D81C7010E94D10CC8010E947D074C
:101380000E94EE0C882309F0A5CF0E94BB06A2CFD5
:10139000C8010E947D070E94EE0C9CCFC8010E94EC
:1013A0007D070E94EE0C80E00F900F900F900F9041
:1013B0000F90CF91DF911F910F91FF90EF90DF90F1
:1013C000CF90BF90AF909F908F907F9008950F9394
:1013D0001F93CF93DF93EC010A811B810E943A0B8C
:1013E0000817190711F080E010C08E819F810197C6
:1013F0009F838E83892B41F4CE0160E070E040E052
:1014000050E020E00E94430981E0DF91CF911F91DD
:101410000F910895CF93DF938FE190E00E94B40481
:10142000EC010097F9F01B821A82198218821D8242
:101430001C821F821E821A8E81E08B8F1C8E8FEF82
:101440008D8F8E8FCE0108960E944505CE01419664
:101450000E944505CE0160E070E040E050E020E0F1
:101460000E944309CE01DF91CF910895AF92BF92C0
:10147000CF92DF92EF92FF920F931F93CF93DF9360
:10148000B82EA62E882309F442C08FE190E00E9476
:10149000B404EC010097D9F1EB2CFF24CA2CDD2415
:1014A000CE9C8001CF9C100DDE9C100D1124C80134
:1014B00001960E94B4049C0199838883009721F1CE
:1014C000080F191F1B830A831A8E9D838C8308942F
:1014D000E108F108EC9CC001ED9C900DFC9C900D86
:1014E0001124280F391F3F832E83BB8EAC8E8FEFC4
:1014F0008D8F8E8FCE0108960E944505CE014196B4
:101500000E9445059E0105C0CE010E94A50420E071
:1015100030E0C901DF91CF911F910F91FF90EF90C3
:10152000DF90CF90BF90AF9008958091BD008F5F06
:101530008093BD0008950FB6F8940F922091BB00E0
:101540003091BC000F900FBEC90108952091BB00DF
:101550003091BC00C90108958091BF000895809129
:10156000BD00882351F081E08093B90008958091F7
:10157000B80081508093B80001C099E0E091B800B4
:10158000E99FF0011124EC53FF4F8081882379F308
:101590009091B80089E0989FD0011124AC53BF4FBF
:1015A0001196ED91FC9112970280F381E02D129635
:1015B000FC93EE931197CD010396E817F90731F4E8
:1015C0008281938112969C938E9311971196ED913F
:1015D000FC911297868197819093B7008093B60013
:1015E0000895FC018091BA0080838091BB009091A6
:1015F000BC00928381830895FC01DB010FB6F8944F
:101600000F929091BA008081981749F02091BB0009
:101610003091BC00818192812817390718F580919B
:10162000BB009091BC00218132814D915C9111975A
:10163000821B930B84179507A8F48091BB009091AF
:10164000BC00281B390B240F351F2D933C93809130
:10165000BA0080838091BB009091BC00928381830B
:1016600080E001C081E00F900FBE089581E080937B
:10167000B90008952091B6003091B700C9010895CE
:101680000F931F93CF93DF93EC01009709F19E898D
:1016900089A19817E9F08E010E5F1F4FC8010E94C3
:1016A000B70529A12E8B85E090E0821B91099D87CB
:1016B0008C878091B800821710F42093B80089E0DD
:1016C000289FC00111248C539F4FB8010E945905D7
:1016D000DF91CF911F910F9108950F931F93CF9397
:1016E000DF93EC01E091B600F091B7003E89868966
:1016F0003817C0F5E091B600F091B700268985E073
:1017000090E0821B91099D878C8789E0389FC001FA
:1017100011248C539F4F2A853B8528173907E1F404
:101720008E010E5F1F4FC8010E94B705E091B60001
:10173000F091B70096899E8B8091B800891710F4BC
:101740009093B80089E0989FC00111248C539F4F5B
:10175000B8010E94590506C0E091B600F091B700AB
:1017600086898E8BDF91CF911F910F9108950F93F2
:101770001F93CF93DF93FC010580F681E02D068156
:101780001781E8012C96CE010E94B7058091BD001B
:101790008823A9F4E8012296CE010E94B705D8015A
:1017A00056969C918091B800891710F49093B800D8
:1017B00089E0989FC00111248C539F4F02C087E09D
:1017C00091E0BE010E945905E091B600F091B7008A
:1017D00020E0D80156969C918689981708F021E060
:1017E000822FDF91CF911F910F910895FF920F9358
:1017F0001F93CF93DF938091BD00882309F08FC0A2
:101800008091BB009091BC0001969093BC008093A6
:10181000BB008091BB009091BC00892B79F5209191
:10182000030130910401809105019091060190938C
:1018300004018093030130930601209305018091F8
:10184000BA008F5F8093BA00E0910301F091040128
:101850008081882319F48FEF9FEF0CC0E091030182
:10186000F09104010580F681E02D0680F781E02DDE
:101870008281938190937A00809379002091BB00BC
:101880003091BC008091790090917A002817390737
:1018900008F44AC089E0F82EE0910301F0910401B8
:1018A0008081882339F48FEF9FEF90937A008093A3
:1018B00079003AC0E0910301F09104010580F681BE
:1018C000E02DC681D7812A813B818091BB00909118
:1018D000BC008217930728F430937A002093790094
:1018E00023C08E010E5F1F4FC8010E94B7058C896F
:1018F0009D89892B21F0CE010C960E94B7059E8907
:101900008091B800891710F49093B8009F9DC00192
:1019100011248C539F4FB8010E945905BDCF80916F
:10192000BE008F5F8093BE00DF91CF911F910F911A
:10193000FF900895CF93DF93EC01E091B600F09112
:10194000B700938382838091BB009091BC00C8173D
:10195000D90768F480910501909106016091B60065
:101960007091B7006E5F7F4F0E94820517C0809113
:101970000301909104016091B6007091B7006E5F11
:101980007F4F0E9482058091790090917A00C8175C
:10199000D90720F4D0937A00C0937900DF91CF91DA
:1019A00008950F931F938B016091B6007091B7005B
:1019B000645F7F4F0E9482058091B6009091B700CE
:1019C00002960E94B7058091BB009091BC00800FE9
:1019D000911F0E949A0C1F910F910895CF92DF9250
:1019E000FF920F931F93DF93CF930F92CDB7DEB784
:1019F0000FB6F8940F928091BD0081508093BD0086
:101A00008091BD00882309F058C08091BF008823D1
:101A100009F453C0198299E0F92E2DC0E0910C0110
:101A2000F0910D01C680D780C6010C960E94B705C3
:101A300086010E5F1F4FC8010E94B705D60156965A
:101A40009C918091B800891710F49093B8009F9DE5
:101A5000C00111248C539F4FB8010E945905E09199
:101A6000B600F091B700D60156969C9186899817DA
:101A700010F0B1E0B98380910701882379F6809155
:101A8000BE00882341F40CC00E94F60B8091BE007A
:101A900081508093BE008091BE008823A9F707C0C3
:101AA000E981E13021F08091B900813031F4109268
:101AB000B9000E94BB0681E001C080E00F900FBE1C
:101AC0000F90CF91DF911F910F91FF90DF90CF90FA
:101AD00008950F931F93CF93DF93EC010097C9F004
:101AE0008091BD008F5F8093BD000091BB0010917D
:101AF000BC008091B6009091B70002960E94B70595
:101B0000CE01800F911F0E949A0C0E94EE0C882338
:101B100011F40E94BB06DF91CF911F910F910895A0
:101B2000CF93DF93FC01EB018091BD008F5F809329
:101B3000BD0020813181C20FD31F8091BB009091E5
:101B4000BC008217930728F4C217D30728F020E0BF
:101B50000CC0C217D30740F08091BB009091BC002D
:101B600020E08C179D0708F421E0D183C083222355
:101B700051F08091B6009091B70002960E94B7058F
:101B8000CE010E949A0C0E94EE0C882311F40E9450
:101B9000BB06DF91CF910895EF92FF920F931F93B1
:101BA000CF93DF938C010FB6F8940F928091B6001B
:101BB0009091B7000817190719F400E010E003C06E
:101BC0000115110529F4C091B600D091B70001C0EC
:101BD000E80122E0E22EF12CEC0EFD1EC7010E946E
:101BE000B7058C899D89892B21F0CE010C960E9426
:101BF000B70580E191E0B7010E9459058091C100CD
:101C00008F5F8093C1008091C2008F5F8093C2007C
:101C10000F900FBE8091C000882321F0012B11F49A
:101C20000E94BB06DF91CF911F910F91FF90EF9023
:101C30000895F8941092C0000E945C0608950F93D6
:101C40001F938091C1008823E1F38091BD008F5FD5
:101C50008093BD00109110010E94EE0C112389F3B6
:101C60000FB6F8940F92E0911501F09116010681DC
:101C70001781C80102960E94B7058091BF0081506C
:101C80008093BF008091C10081508093C1000F906C
:101C90000FBEF8018789908D0E94A504C8010E949B
:101CA000A504CFCF2F923F924F925F927F928F9257
:101CB0009F92AF92BF92CF92DF92EF92FF920F93DB
:101CC0001F93CF93DF931C014B015A012901702E02
:101CD000E60182E290E00E94B4046C01009771F08A
:101CE000209721F4C5010E94B404EC01F601D08FC5
:101CF000C78B209729F4C6010E94A5048FEFC0C0AE
:101D0000CE0165EA70E0A5010E94CC100894A108FC
:101D1000B108F601C789D08DCA0DDB1DC6014996F1
:101D2000B40148E050E00E94D310F60110A2072D44
:101D3000F4E0F71508F404E0F601068B01A342E095
:101D4000A42EB12CAC0CBD1CC5010E945505C601CA
:101D50000C960E945505F601D186C08685E090E07C
:101D6000801B910995878487D38AC28ACE01B101ED
:101D7000A2010E94DF05F60191838083E114F10442
:101D800019F0F701D182C0820FB6F8940F928091BA
:101D9000BF008F5F8093BF008091B6009091B70025
:101DA000892B79F5D092B700C092B6008091BF0020
:101DB0008130B1F5C4ECD0E0CE010E9445052996F2
:101DC000F0E0C13FDF07C1F731EFE32E30E0F32E43
:101DD000C7010E9445050AEF10E0C8010E944505B1
:101DE00087E091E00E94450580E191E00E94450571
:101DF000F0920401E09203011093060100930501A3
:101E00000FC08091C000882359F4E091B600F09192
:101E1000B7008689781620F0D092B700C092B6003D
:101E2000F60196898091C300891710F49093C3003E
:101E30008091C2008F5F8093C200F60196898091E5
:101E4000B800891710F49093B800F601868929E04C
:101E5000829FC00111248C539F4FB5010E945905E8
:101E60000F900FBE8091C000882349F0E091B6002A
:101E7000F091B7008689871510F40E94BB0681E0B7
:101E8000DF91CF911F910F91FF90EF90DF90CF9056
:101E9000BF90AF909F908F907F905F904F903F90BA
:101EA0002F900895AF92BF92CF92DF92EF92FF9260
:101EB0000F938FE19EE06EE670E042EC51E020E08F
:101EC00030E000E0EE24FF24CC24DD24AA24BB244F
:101ED0000E94520E813049F4F8948093C000109211
:101EE000BC001092BB000E9427060F91FF90EF905C
:101EF000DF90CF90BF90AF900895629FD001739F05
:101F0000F001829FE00DF11D649FE00DF11D929F95
:101F1000F00D839FF00D749FF00D659FF00D9927D4
:101F2000729FB00DE11DF91F639FB00DE11DF91FF8
:101F3000BD01CF0111240895A1E21A2EAA1BBB1BDB
:101F4000FD010DC0AA1FBB1FEE1FFF1FA217B30785
:101F5000E407F50720F0A21BB30BE40BF50B661F9B
:101F6000771F881F991F1A9469F76095709580955F
:101F700090959B01AC01BD01CF010895CF93DF93F4
:101F8000BC018230910510F462E070E0A0911D0167
:101F9000B0911E01ED01E0E0F0E040E050E021C032
:101FA000888199818617970769F48A819B81309788
:101FB00019F09383828304C090931E0180931D01C6
:101FC000FE0134C06817790738F44115510519F03E
:101FD0008417950708F4AC01FE018A819B819C015E
:101FE000E9012097E9F641155105A9F1CA01861BBF
:101FF000970B049708F4BA01E0E0F0E02AC08D9155
:102000009C91119784179507F9F46417750781F46B
:1020100012968D919C911397309719F09383828338
:1020200004C090931E0180931D01FD0132964FC0A4
:10203000CA01861B970BFD01E80FF91F619371938D
:1020400002978D939C9343C0FD01828193819C01F3
:10205000D9011097A1F680911B0190911C01892B49
:1020600041F4809175009091760090931C018093CB
:102070001B0140917700509178004115510541F4C2
:102080004DB75EB78091730090917400481B590B57
:1020900020911B0130911C0124173507B0F4CA01AF
:1020A000821B930B8617970780F0AB014E5F5F4F43
:1020B0008417950750F0420F531F50931C01409313
:1020C0001B01F9016193719302C0E0E0F0E0CF01E0
:1020D000DF91CF910895CF93DF93009709F450C01B
:1020E000EC0122971B821A82A0911D01B0911E0162
:1020F000109709F140E050E0AC17BD0708F1BB8331
:10210000AA83FE0121913191E20FF31FAE17BF07A1
:1021100079F48D919C911197280F391F2E5F3F4FB5
:102120003983288312968D919C9113979B838A8380
:102130004115510571F4D0931E01C0931D0120C0BB
:1021400012968D919C911397AD01009711F0DC01CF
:10215000D3CFFA01D383C28321913191E20FF31FD0
:10216000CE17DF0769F488819981280F391F2E5F08
:102170003F4FFA01318320838A819B81938382833D
:10218000DF91CF910895FB01DC0102C001900D9217
:1021900041505040D8F70895DC0101C06D93415083
:1021A0005040E0F70895FB01DC014150504048F0F9
:1021B00001900D920020C9F701C01D92415050407E
:0821C000E0F70895F894FFCF49
:1021C80057656C636F6D650048656C6C6F004944BA
:0C21D8004C450020001F010000FFFF002C
:00000001FF
