:100000000C942A000C943C000C943C000C943C0092
:100010000C943C000C943C000C943C000C943C0070
:100020000C943C000C943C000C943C000C94640335
:100030000C943C000C943C000C943C000C943C0050
:100040000C943C000C943C000C943C000C943C0040
:100050000C943C0011241FBECFE5D8E0DEBFCDBF1D
:1000600010E0A0E6B0E001C01D92A436B107E1F7B0
:100070000E94BB040C94CF050C940000FC0186B1D7
:1000800082958F7080FF08C084B195B19183808381
:10009000349A369A81E0089586B180E0089581E02F
:1000A00060E040E00E94FD00389839983A983B980B
:1000B0003C98379A3E9A3F98309A319A329A369ABB
:1000C0003D9833980895823061F0833018F4813080
:1000D00069F405C0833039F0843041F406C06ABB4E
:1000E000089567BB089564BB089561BB089582308D
:1000F00061F0833018F4813059F405C0833029F061
:10010000843031F404C06BBB089568BB089562BBB2
:100110000895823061F0833018F4813069F405C0AD
:10012000833039F0843041F406C089B3089586B332
:10013000089583B3089580B30895823041F18330E8
:1001400020F4813009F058C006C0833001F18430BA
:1001500009F052C037C0413059F42BB381E090E030
:1001600002C0880F991F6A95E2F7282B2BBB0895D0
:10017000442309F041C02BB381E090E002C0880F16
:10018000991F6A95E2F7809582238BBB08954130D1
:1001900059F428B381E090E002C0880F991F6A9556
:1001A000E2F7282B28BB0895442331F528B381E0DA
:1001B00090E002C0880F991F6A95E2F7809582232C
:1001C00088BB0895413059F422B381E090E002C029
:1001D000880F991F6A95E2F7282B22BB08954423C4
:1001E00059F422B381E090E002C0880F991F6A950C
:1001F000E2F78095822382BB0895823049F18330F3
:1002000020F4813009F075C007C0833009F43CC088
:10021000843009F06EC053C0413059F42AB381E0F4
:1002200090E002C0880F991F6A95E2F7282B2ABB3D
:100230000895442309F05DC02AB381E090E002C034
:10024000880F991F6A95E2F7809582238ABB0895EB
:10025000413059F427B381E090E002C0880F991F24
:100260006A95E2F7282B27BB0895442309F041C083
:1002700027B381E090E002C0880F991F6A95E2F7EA
:100280008095822387BB0895413059F424B381E0DF
:1002900090E002C0880F991F6A95E2F7282B24BBD3
:1002A0000895442331F524B381E090E002C0880F23
:1002B000991F6A95E2F78095822384BB08954130A7
:1002C00059F421B381E090E002C0880F991F6A952C
:1002D000E2F7282B21BB0895442359F421B381E090
:1002E00090E002C0880F991F6A95E2F780958223FB
:1002F00081BB0895823061F0833018F48130D9F4E5
:1003000005C0833039F08430B1F40DC089B303C027
:1003100086B301C083B390E002C0959587956A9536
:10032000E2F78170089580B390E002C095958795BB
:100330006A95E2F78170089582E080B981B18C7F7F
:1003400081B984E086BF089582E082B984E086BFE7
:10035000089584EA86BF06B607FEFDCF81B1887F87
:100360008830E1F7089584EA86BF06B607FEFDCF20
:1003700081B1887F8031E1F70895880F83B984E8DF
:1003800086BF06B607FEFDCF81B1887F8831E1F7D1
:100390000895880F83B9189A84E886BF06B607FEC9
:1003A000FDCF81B1887F8034E1F7089583B984E877
:1003B00086BF06B607FEFDCF81B1887F8832E1F7A0
:1003C000089584E886BF06B607FEFDCF81B1887F19
:1003D0008835E1F783B1089584E986BF089584ECF8
:1003E00086BF06B607FEFDCF81B1887F8036E1F774
:1003F000089584EC86BF06B607FEFDCF81B1887FE5
:10040000883AE1F7089584EC86BF06B607FEFDCF73
:1004100081B1887F8038E1F783B1089583B984EC96
:1004200086BF06B607FEFDCF81B1887F803CE1F72D
:1004300008950F931F93182F82E061E040E00E941F
:100440009D0082E060E040E00E949D0081E0612F1D
:100450000E94770082E062E041E00E949D0000ED92
:1004600017E0C8010197F1F782E062E040E00E94E6
:100470009D00C8010197F1F71F910F9108958823FE
:1004800029F4862F80580E9419020895813021F4A2
:10049000862F80540E941902089582E060E041E0B6
:1004A0000E94FD0082E061E041E00E94FD0082E0E8
:1004B00062E041E00E94FD0081E06FEF0E94630076
:1004C00084EF91E028EC30E0F9013197F1F70197E2
:1004D000D9F788E30E94190280ED97E00197F1F7C0
:1004E0008CE00E94190280EA9FE00197F1F781E019
:1004F0000E94190208950F931F93182F82E061E064
:1005000040E00E949D0082E060E041E00E949D008A
:1005100081E0612F0E94770082E062E041E00E946A
:100520009D0000ED17E0C8010197F1F782E062E05D
:1005300040E00E949D00C8010197F1F71F910F91C3
:100540000895AF92BF92CF92DF92EF92FF920F93F6
:100550001F935B016C01611571058105910519F40B
:1005600080E30E947B0281E0E82EF12C012D112D09
:100570001EC0C801B7012AE030E040E050E00E9410
:1005800067057B018C01C601B5010E949905E60E45
:10059000F71E081F191FC601B5012AE030E040E030
:1005A00050E00E949905C901DA015C016D01A114B6
:1005B000B104C104D104E9F618C0C801B7012AE0AA
:1005C00030E040E050E00E949905862F805D0E9457
:1005D0007B02C801B7012AE030E040E050E00E9411
:1005E0009905C901DA017C018D0181E0E816F10469
:1005F0000105110511F71F910F91FF90EF90DF900A
:10060000CF90BF90AF9008951F93CF93DF93EC01ED
:1006100010E003C00E947B021F5FFE01E10FF11D8D
:1006200080818823B9F7DF91CF911F9108958FB909
:10063000779BFECF8FB1089582E065E040E00E9495
:10064000FD0082E066E041E00E94FD0082E067E09C
:1006500040E00E94FD0082E064E040E00E94FD0076
:100660006F986E9A6D9A6C986B986A98089582E06C
:1006700065E041E00E94FD0082E066E040E00E940B
:10068000FD0082E067E041E00E94FD0082E064E05E
:1006900041E00E94FD0082E064E040E00E949D0095
:1006A00084E060E041E00E94FD0084E060E040E022
:1006B0000E949D006F986E9A6D9A6C9A6B986A98DA
:1006C000699A689A709A08951F920F920FB60F92C6
:1006D00011242F933F934F935F936F937F938F9347
:1006E0009F93AF93BF93EF93FF938091600090919E
:1006F000610001969093610080936000819749F4B6
:10070000E0916200F09163000995109261001092EF
:100710006000FF91EF91BF91AF919F918F917F9179
:100720006F915F914F913F912F910F900FBE0F905E
:100730001F9018959093630080936200089583B78B
:10074000816083BF83B78D7F83BF83B78B7F83BF78
:1007500083B7877F83BF83B78F7E83BF83B78F7D48
:1007600083BF83B78F7B83BF83B78F7783BF89B7FF
:10077000816089BF89B78D7F89BF8FB780688FBF40
:1007800008955F9BFECF8CB108956CB95E9BFECF40
:10079000089584E061E040E00E94FD0084E060E0B4
:1007A00041E00E94FD00549A539A529883E389B91C
:1007B0005C985A98599886E880BD10BC08951F939C
:1007C000182F0E94A90180E590E00E94BD01812FB1
:1007D00090E00E94D6010E94B30180E590E00E9463
:1007E000C9010E94E101182F0E94EC01812F1F9185
:1007F00008950F931F93182F062F0E94A90180E5DB
:1008000090E00E94BD01812F90E00E94D601802FD0
:1008100090E00E94D6010E94EC011F910F91089573
:100820000E949C0108950F931F93DF93CF93CDB740
:10083000DEB728970FB6F894DEBF0FBECDBF93E0AA
:10084000998392E09A8391E09B831C8294E09D833C
:1008500095E09E8396E09F8397E09887082F10E0AD
:100860000150104084E063E041E00E949D0084E07C
:1008700062E041E00E949D0084E061E041E00E946E
:100880009D0084E060E041E00E949D00C80164E0BA
:1008900070E00E9486058F5FFE01E80FF11D84E085
:1008A000608140E00E949D00C80164E070E00E9409
:1008B00086056F5FFE01E60FF11D048184E0602F65
:1008C0000E947A01882311F090E00CC080E49CE93A
:1008D0000197F1F784E0602F0E947A0190E088236D
:1008E00009F491E0892F28960FB6F894DEBF0FBE69
:1008F000CDBFCF91DF911F910F91089584E064E007
:1009000040E00E94FD0084E065E040E00E94FD00C0
:1009100084E066E040E00E94FD0084E067E040E0A3
:100920000E94FD0084E064E041E00E949D0084E0BC
:1009300065E041E00E949D0084E066E041E00E94A5
:100940009D0084E067E041E00E949D0084E063E058
:1009500041E00E94FD0084E062E041E00E94FD0071
:1009600084E061E041E00E94FD0084E060E041E05D
:100970000E94FD000895AF92BF92CF92DF92EF9256
:10098000FF921F93CF93DF930E944D020E94C903F1
:1009900082E066E041E00E94FD008FB58E7F8FBD52
:1009A0008FB582608FBD8FB5877F8FBD8EB5886014
:1009B0008EBD8EB580618EBD8FB58F7E8FBD8FB59C
:1009C00080628FBD8FB58F7B8FBD8FB580688FBDE7
:1009D0008EB58E7F8EBD8EB582608EBD8EB58B7FBF
:1009E0008EBD8EB580648EBD84E065E041E00E94DE
:1009F000FD0080E29EE497BD86BD0E94C103863063
:100A000009F05EC065E470E080E090E00E94C503FC
:100A10002CE2A22E21E0B22EC8ECD0E092EEE92E1C
:100A200094E0F92E8CEFC82E88E0D82E0E94C103E6
:100A3000182F813051F482E066E041E00E949D0071
:100A40006EE470E080E090E00BC0823061F482E000
:100A500066E040E00E949D0066E470E080E090E087
:100A60000E94C50326C0833021F5BBBCAABC80E12F
:100A700097E2FE013197F1F70197D9F7FBBCEABC89
:100A800080E197E2FE013197F1F70197D9F7DBBCDE
:100A9000CABC80E197E2FE013197F1F70197D9F7DF
:100AA000FBBCEABC80E197E2FE013197F1F70197C8
:100AB000D9F7612F70E080E090E00E94A102B6CFEC
:100AC0006EE679E680E090E00E94C50396CF629FD3
:100AD000D001739FF001829FE00DF11D649FE00D36
:100AE000F11D929FF00D839FF00D749FF00D659F97
:100AF000F00D9927729FB00DE11DF91F639FB00D96
:100B0000E11DF91FBD01CF011124089597FB092EA6
:100B100007260AD077FD04D02ED006D000201AF484
:100B2000709561957F4F0895F6F7909581959F4F49
:100B30000895A1E21A2EAA1BBB1BFD010DC0AA1F1E
:100B4000BB1FEE1FFF1FA217B307E407F50720F036
:100B5000A21BB30BE40BF50B661F771F881F991FB1
:100B60001A9469F760957095809590959B01AC01FA
:100B7000BD01CF010895AA1BBB1B51E107C0AA1FED
:100B8000BB1FA617B70710F0A61BB70B881F991F2E
:100B90005A95A9F780959095BC01CD010895F894D8
:020BA000FFCF85
:00000001FF
